{
  "contractName": "arena",
  "abi": [
    {
      "anonymous": false,
      "inputs": [
        {
          "indexed": false,
          "name": "breeder",
          "type": "address"
        },
        {
          "indexed": false,
          "name": "gain",
          "type": "uint256"
        }
      ],
      "name": "fightResult",
      "type": "event"
    },
    {
      "constant": false,
      "inputs": [
        {
          "name": "horseID",
          "type": "uint256"
        },
        {
          "name": "_money",
          "type": "uint256"
        }
      ],
      "name": "proposeToFight",
      "outputs": [],
      "payable": false,
      "stateMutability": "nonpayable",
      "type": "function"
    },
    {
      "constant": false,
      "inputs": [
        {
          "name": "horseID",
          "type": "uint256"
        }
      ],
      "name": "agreeToFight",
      "outputs": [],
      "payable": false,
      "stateMutability": "nonpayable",
      "type": "function"
    },
    {
      "constant": false,
      "inputs": [],
      "name": "fight",
      "outputs": [],
      "payable": false,
      "stateMutability": "nonpayable",
      "type": "function"
    },
    {
      "constant": false,
      "inputs": [],
      "name": "closeFight",
      "outputs": [],
      "payable": false,
      "stateMutability": "nonpayable",
      "type": "function"
    }
  ],
  "bytecode": "0x608060405234801561001057600080fd5b50610878806100206000396000f300608060405260043610610062576000357c0100000000000000000000000000000000000000000000000000000000900463ffffffff16806331b8fc4d14610067578063457df8de1461007e57806372368bdc14610095578063d7de837e146100cc575b600080fd5b34801561007357600080fd5b5061007c6100f9565b005b34801561008a57600080fd5b50610093610129565b005b3480156100a157600080fd5b506100ca600480360381019080803590602001909291908035906020019092919050505061044e565b005b3480156100d857600080fd5b506100f760048036038101908080359060200190929190505050610626565b005b600560029054906101000a900460ff1615151561011557600080fd5b600154600160008282540192505081905550565b600060011515600560019054906101000a900460ff16151514151561014d57600080fd5b6000809054906101000a900473ffffffffffffffffffffffffffffffffffffffff1673ffffffffffffffffffffffffffffffffffffffff16635ec01e4d6040518163ffffffff167c0100000000000000000000000000000000000000000000000000000000028152600401602060405180830381600087803b1580156101d257600080fd5b505af11580156101e6573d6000803e3d6000fd5b505050506040513d60208110156101fc57600080fd5b810190808051906020019092919050505090506000811415610315576000809054906101000a900473ffffffffffffffffffffffffffffffffffffffff1673ffffffffffffffffffffffffffffffffffffffff16634b6b650760006004546040518363ffffffff167c0100000000000000000000000000000000000000000000000000000000028152600401808315151515815260200182815260200192505050600060405180830381600087803b1580156102b757600080fd5b505af11580156102cb573d6000803e3d6000fd5b5050505033600260006101000a81548173ffffffffffffffffffffffffffffffffffffffff021916908373ffffffffffffffffffffffffffffffffffffffff160217905550610430565b6000809054906101000a900473ffffffffffffffffffffffffffffffffffffffff1673ffffffffffffffffffffffffffffffffffffffff16634b6b650760016004546040518363ffffffff167c0100000000000000000000000000000000000000000000000000000000028152600401808315151515815260200182815260200192505050600060405180830381600087803b1580156103b457600080fd5b505af11580156103c8573d6000803e3d6000fd5b50505050600360009054906101000a900473ffffffffffffffffffffffffffffffffffffffff16600260006101000a81548173ffffffffffffffffffffffffffffffffffffffff021916908373ffffffffffffffffffffffffffffffffffffffff1602179055505b6001600560026101000a81548160ff02191690831515021790555050565b6000809054906101000a900473ffffffffffffffffffffffffffffffffffffffff1673ffffffffffffffffffffffffffffffffffffffff16633af32abf600360009054906101000a900473ffffffffffffffffffffffffffffffffffffffff166040518263ffffffff167c0100000000000000000000000000000000000000000000000000000000028152600401808273ffffffffffffffffffffffffffffffffffffffff1673ffffffffffffffffffffffffffffffffffffffff168152602001915050600060405180830381600087803b15801561052c57600080fd5b505af1158015610540573d6000803e3d6000fd5b505050506000809054906101000a900473ffffffffffffffffffffffffffffffffffffffff1673ffffffffffffffffffffffffffffffffffffffff1663175f91bc6001846040518363ffffffff167c0100000000000000000000000000000000000000000000000000000000028152600401808315151515815260200182815260200192505050600060405180830381600087803b1580156105e157600080fd5b505af11580156105f5573d6000803e3d6000fd5b50505050816004819055506001600560006101000a81548160ff021916908315150217905550806001819055505050565b60011515600560009054906101000a900460ff16151514151561064857600080fd5b6000809054906101000a900473ffffffffffffffffffffffffffffffffffffffff1673ffffffffffffffffffffffffffffffffffffffff16633af32abf336040518263ffffffff167c0100000000000000000000000000000000000000000000000000000000028152600401808273ffffffffffffffffffffffffffffffffffffffff1673ffffffffffffffffffffffffffffffffffffffff168152602001915050600060405180830381600087803b15801561070457600080fd5b505af1158015610718573d6000803e3d6000fd5b505050503373ffffffffffffffffffffffffffffffffffffffff16600360009054906101000a900473ffffffffffffffffffffffffffffffffffffffff1673ffffffffffffffffffffffffffffffffffffffff161415151561077957600080fd5b6000809054906101000a900473ffffffffffffffffffffffffffffffffffffffff1673ffffffffffffffffffffffffffffffffffffffff1663175f91bc6001836040518363ffffffff167c0100000000000000000000000000000000000000000000000000000000028152600401808315151515815260200182815260200192505050600060405180830381600087803b15801561081657600080fd5b505af115801561082a573d6000803e3d6000fd5b505050506001600560016101000a81548160ff021916908315150217905550505600a165627a7a72305820a44d3791349294065765e2bfd1608eaaffcc7434daad2c6cba36e6653f1f5d2a0029",
  "source": "pragma solidity ^0.4.25;\r\n\r\nimport \"./ERC721.sol\";\r\n\r\ncontract arena {\r\n\tERC721 m_contract;\r\n\tusing Address for address;\r\n    using Counters for Counters.Counter;\r\n\t\r\n\tuint money; \r\n\taddress winner;\r\n\tevent fightResult(address breeder, uint gain);\r\n\taddress _breederWhoProposed;\t\r\n\tuint _readyToFightAnimal;\r\n\tbool fightProposed;\r\n\tbool fightOpen;\r\n\tbool fightFinished;\r\n\t\r\n\t\r\n\tfunction proposeToFight(uint horseID, uint _money)\r\n\t{\r\n\t\tm_contract.isWhitelisted(_breederWhoProposed);\r\n\t\tm_contract.changeReadyToFight(true, horseID);\r\n\t\t_readyToFightAnimal=horseID;\r\n\t\tfightProposed=true;\r\n\t\tmoney=_money;\r\n\t}\r\n\t\r\n\tfunction agreeToFight(uint horseID)\r\n\t{\r\n\t\trequire(fightProposed==true);\r\n\t\t\r\n\t\tm_contract.isWhitelisted(msg.sender);\r\n\t\trequire(_breederWhoProposed!=msg.sender);\r\n\t\tm_contract.changeReadyToFight(true, horseID);\r\n\t\tfightOpen=true;\r\n\t}\r\n\t\r\n\tfunction fight()\r\n\t{\r\n\t\trequire(fightOpen==true);\r\n\t\t\r\n\t\tuint result=m_contract.random(); //0=celui qui propose perd, 1=victoire\r\n\t\tif(result==0){\r\n\t\tm_contract.changeAlive(false, _readyToFightAnimal);\t\r\n\t\twinner=msg.sender;\r\n\t\t}\r\n\t\telse {m_contract.changeAlive(true, _readyToFightAnimal);\r\n\t\twinner=_breederWhoProposed;\r\n\t\t}\t\r\n\t\tfightFinished=true;\r\n\t}\r\n\t\r\n\tfunction closeFight() {\r\n        require(!fightFinished);\r\n\t\tmoney+=money;\r\n        //fightResult(winner, money);\r\n\t}\r\n}\r\n",
  "sourcePath": "C:\\Users\\jbgue\\Documents\\ESILV\\4A\\Blockchain\\TD6 copie\\contracts\\fight.sol",
  "compiler": {
    "name": "solc",
    "version": "0.4.25+commit.59dbf8f1.Emscripten.clang"
  },
  "schemaVersion": "2.0.2",
  "updatedAt": "2019-03-17T20:30:48.144Z"
}