{
  "contractName": "ERC721",
  "abi": [
    {
      "constant": true,
      "inputs": [],
      "name": "topBidder",
      "outputs": [
        {
          "name": "",
          "type": "address"
        }
      ],
      "payable": false,
      "stateMutability": "view",
      "type": "function"
    },
    {
      "constant": true,
      "inputs": [
        {
          "name": "interfaceId",
          "type": "bytes4"
        }
      ],
      "name": "supportsInterface",
      "outputs": [
        {
          "name": "",
          "type": "bool"
        }
      ],
      "payable": false,
      "stateMutability": "view",
      "type": "function"
    },
    {
      "constant": true,
      "inputs": [],
      "name": "nextHorseId",
      "outputs": [
        {
          "name": "",
          "type": "uint256"
        }
      ],
      "payable": false,
      "stateMutability": "view",
      "type": "function"
    },
    {
      "constant": true,
      "inputs": [],
      "name": "topBid",
      "outputs": [
        {
          "name": "",
          "type": "uint256"
        }
      ],
      "payable": false,
      "stateMutability": "view",
      "type": "function"
    },
    {
      "constant": true,
      "inputs": [
        {
          "name": "",
          "type": "uint256"
        }
      ],
      "name": "breeders",
      "outputs": [
        {
          "name": "",
          "type": "address"
        }
      ],
      "payable": false,
      "stateMutability": "view",
      "type": "function"
    },
    {
      "constant": true,
      "inputs": [
        {
          "name": "",
          "type": "uint256"
        }
      ],
      "name": "horseRegister",
      "outputs": [
        {
          "name": "owner",
          "type": "address"
        },
        {
          "name": "name",
          "type": "string"
        },
        {
          "name": "color",
          "type": "string"
        },
        {
          "name": "sex",
          "type": "uint256"
        },
        {
          "name": "favoriteDish",
          "type": "string"
        },
        {
          "name": "alive",
          "type": "bool"
        },
        {
          "name": "readyToMate",
          "type": "bool"
        },
        {
          "name": "readyToFight",
          "type": "bool"
        }
      ],
      "payable": false,
      "stateMutability": "view",
      "type": "function"
    },
    {
      "constant": true,
      "inputs": [
        {
          "name": "",
          "type": "address"
        }
      ],
      "name": "_whitelist",
      "outputs": [
        {
          "name": "",
          "type": "bool"
        }
      ],
      "payable": false,
      "stateMutability": "view",
      "type": "function"
    },
    {
      "constant": true,
      "inputs": [],
      "name": "beneficiaryAddress",
      "outputs": [
        {
          "name": "",
          "type": "address"
        }
      ],
      "payable": false,
      "stateMutability": "view",
      "type": "function"
    },
    {
      "inputs": [],
      "payable": false,
      "stateMutability": "nonpayable",
      "type": "constructor"
    },
    {
      "anonymous": false,
      "inputs": [
        {
          "indexed": true,
          "name": "account",
          "type": "address"
        }
      ],
      "name": "RegisterAdded",
      "type": "event"
    },
    {
      "anonymous": false,
      "inputs": [
        {
          "indexed": false,
          "name": "nextHorseId",
          "type": "uint256"
        }
      ],
      "name": "createdAnHorse",
      "type": "event"
    },
    {
      "anonymous": false,
      "inputs": [
        {
          "indexed": false,
          "name": "bidder",
          "type": "address"
        },
        {
          "indexed": false,
          "name": "bidAmount",
          "type": "uint256"
        }
      ],
      "name": "topBidIncreased",
      "type": "event"
    },
    {
      "anonymous": false,
      "inputs": [
        {
          "indexed": false,
          "name": "winner",
          "type": "address"
        },
        {
          "indexed": false,
          "name": "bidAmount",
          "type": "uint256"
        }
      ],
      "name": "auctionResult",
      "type": "event"
    },
    {
      "anonymous": false,
      "inputs": [
        {
          "indexed": true,
          "name": "from",
          "type": "address"
        },
        {
          "indexed": true,
          "name": "to",
          "type": "address"
        },
        {
          "indexed": true,
          "name": "tokenId",
          "type": "uint256"
        }
      ],
      "name": "Transfer",
      "type": "event"
    },
    {
      "anonymous": false,
      "inputs": [
        {
          "indexed": true,
          "name": "owner",
          "type": "address"
        },
        {
          "indexed": true,
          "name": "approved",
          "type": "address"
        },
        {
          "indexed": true,
          "name": "tokenId",
          "type": "uint256"
        }
      ],
      "name": "Approval",
      "type": "event"
    },
    {
      "anonymous": false,
      "inputs": [
        {
          "indexed": true,
          "name": "owner",
          "type": "address"
        },
        {
          "indexed": true,
          "name": "operator",
          "type": "address"
        },
        {
          "indexed": false,
          "name": "approved",
          "type": "bool"
        }
      ],
      "name": "ApprovalForAll",
      "type": "event"
    },
    {
      "constant": true,
      "inputs": [],
      "name": "Owner",
      "outputs": [
        {
          "name": "",
          "type": "address"
        }
      ],
      "payable": false,
      "stateMutability": "view",
      "type": "function"
    },
    {
      "constant": false,
      "inputs": [
        {
          "name": "_address",
          "type": "address"
        }
      ],
      "name": "registerBreeder",
      "outputs": [],
      "payable": false,
      "stateMutability": "nonpayable",
      "type": "function"
    },
    {
      "constant": false,
      "inputs": [
        {
          "name": "_address",
          "type": "address"
        }
      ],
      "name": "isWhitelisted",
      "outputs": [],
      "payable": false,
      "stateMutability": "nonpayable",
      "type": "function"
    },
    {
      "constant": false,
      "inputs": [
        {
          "name": "haddress",
          "type": "address"
        },
        {
          "name": "hname",
          "type": "string"
        },
        {
          "name": "hcolor",
          "type": "string"
        },
        {
          "name": "hsex",
          "type": "uint256"
        },
        {
          "name": "hfavoriteDish",
          "type": "string"
        },
        {
          "name": "halive",
          "type": "bool"
        }
      ],
      "name": "declareAnimal",
      "outputs": [],
      "payable": false,
      "stateMutability": "nonpayable",
      "type": "function"
    },
    {
      "constant": false,
      "inputs": [
        {
          "name": "_horseID",
          "type": "uint256"
        }
      ],
      "name": "deadAnimal",
      "outputs": [],
      "payable": false,
      "stateMutability": "nonpayable",
      "type": "function"
    },
    {
      "constant": false,
      "inputs": [
        {
          "name": "_breeder",
          "type": "address"
        },
        {
          "name": "horseID",
          "type": "uint256"
        }
      ],
      "name": "ready",
      "outputs": [],
      "payable": false,
      "stateMutability": "nonpayable",
      "type": "function"
    },
    {
      "constant": false,
      "inputs": [],
      "name": "random",
      "outputs": [
        {
          "name": "",
          "type": "uint256"
        }
      ],
      "payable": false,
      "stateMutability": "nonpayable",
      "type": "function"
    },
    {
      "constant": false,
      "inputs": [
        {
          "name": "A",
          "type": "address"
        },
        {
          "name": "B",
          "type": "address"
        },
        {
          "name": "horseIdA",
          "type": "uint256"
        },
        {
          "name": "horseIdB",
          "type": "uint256"
        },
        {
          "name": "_futureOwner",
          "type": "address"
        },
        {
          "name": "hname",
          "type": "string"
        }
      ],
      "name": "breedAnimal",
      "outputs": [],
      "payable": false,
      "stateMutability": "nonpayable",
      "type": "function"
    },
    {
      "constant": false,
      "inputs": [
        {
          "name": "_biddingTime",
          "type": "uint256"
        },
        {
          "name": "_beneficiary",
          "type": "address"
        },
        {
          "name": "horseID",
          "type": "uint256"
        }
      ],
      "name": "createAuction",
      "outputs": [],
      "payable": false,
      "stateMutability": "nonpayable",
      "type": "function"
    },
    {
      "constant": false,
      "inputs": [],
      "name": "bidOnAuction",
      "outputs": [],
      "payable": true,
      "stateMutability": "payable",
      "type": "function"
    },
    {
      "constant": false,
      "inputs": [
        {
          "name": "horseID",
          "type": "uint256"
        }
      ],
      "name": "claimAuction",
      "outputs": [],
      "payable": false,
      "stateMutability": "nonpayable",
      "type": "function"
    },
    {
      "constant": false,
      "inputs": [],
      "name": "withdraw",
      "outputs": [
        {
          "name": "",
          "type": "bool"
        }
      ],
      "payable": false,
      "stateMutability": "nonpayable",
      "type": "function"
    },
    {
      "constant": false,
      "inputs": [],
      "name": "auctionClose",
      "outputs": [],
      "payable": false,
      "stateMutability": "nonpayable",
      "type": "function"
    },
    {
      "constant": false,
      "inputs": [
        {
          "name": "ready",
          "type": "bool"
        },
        {
          "name": "horseID",
          "type": "uint256"
        }
      ],
      "name": "changeReadyToFight",
      "outputs": [],
      "payable": false,
      "stateMutability": "nonpayable",
      "type": "function"
    },
    {
      "constant": false,
      "inputs": [
        {
          "name": "alive",
          "type": "bool"
        },
        {
          "name": "horseID",
          "type": "uint256"
        }
      ],
      "name": "changeAlive",
      "outputs": [],
      "payable": false,
      "stateMutability": "nonpayable",
      "type": "function"
    },
    {
      "constant": true,
      "inputs": [
        {
          "name": "owner",
          "type": "address"
        }
      ],
      "name": "balanceOf",
      "outputs": [
        {
          "name": "",
          "type": "uint256"
        }
      ],
      "payable": false,
      "stateMutability": "view",
      "type": "function"
    },
    {
      "constant": true,
      "inputs": [
        {
          "name": "tokenId",
          "type": "uint256"
        }
      ],
      "name": "ownerOf",
      "outputs": [
        {
          "name": "",
          "type": "address"
        }
      ],
      "payable": false,
      "stateMutability": "view",
      "type": "function"
    },
    {
      "constant": false,
      "inputs": [
        {
          "name": "to",
          "type": "address"
        },
        {
          "name": "tokenId",
          "type": "uint256"
        }
      ],
      "name": "approve",
      "outputs": [],
      "payable": false,
      "stateMutability": "nonpayable",
      "type": "function"
    },
    {
      "constant": true,
      "inputs": [
        {
          "name": "tokenId",
          "type": "uint256"
        }
      ],
      "name": "getApproved",
      "outputs": [
        {
          "name": "",
          "type": "address"
        }
      ],
      "payable": false,
      "stateMutability": "view",
      "type": "function"
    },
    {
      "constant": false,
      "inputs": [
        {
          "name": "to",
          "type": "address"
        },
        {
          "name": "approved",
          "type": "bool"
        }
      ],
      "name": "setApprovalForAll",
      "outputs": [],
      "payable": false,
      "stateMutability": "nonpayable",
      "type": "function"
    },
    {
      "constant": true,
      "inputs": [
        {
          "name": "owner",
          "type": "address"
        },
        {
          "name": "operator",
          "type": "address"
        }
      ],
      "name": "isApprovedForAll",
      "outputs": [
        {
          "name": "",
          "type": "bool"
        }
      ],
      "payable": false,
      "stateMutability": "view",
      "type": "function"
    },
    {
      "constant": false,
      "inputs": [
        {
          "name": "from",
          "type": "address"
        },
        {
          "name": "to",
          "type": "address"
        },
        {
          "name": "tokenId",
          "type": "uint256"
        }
      ],
      "name": "transferFrom",
      "outputs": [],
      "payable": false,
      "stateMutability": "nonpayable",
      "type": "function"
    },
    {
      "constant": false,
      "inputs": [
        {
          "name": "from",
          "type": "address"
        },
        {
          "name": "to",
          "type": "address"
        },
        {
          "name": "tokenId",
          "type": "uint256"
        }
      ],
      "name": "safeTransferFrom",
      "outputs": [],
      "payable": false,
      "stateMutability": "nonpayable",
      "type": "function"
    },
    {
      "constant": false,
      "inputs": [
        {
          "name": "from",
          "type": "address"
        },
        {
          "name": "to",
          "type": "address"
        },
        {
          "name": "tokenId",
          "type": "uint256"
        },
        {
          "name": "_data",
          "type": "bytes"
        }
      ],
      "name": "safeTransferFrom",
      "outputs": [],
      "payable": false,
      "stateMutability": "nonpayable",
      "type": "function"
    }
  ],
  "bytecode": "0x60806040526000600a553480156200001657600080fd5b50620000546301ffc9a77c01000000000000000000000000000000000000000000000000000000000262000097640100000000026401000000009004565b620000916380ac58cd7c01000000000000000000000000000000000000000000000000000000000262000097640100000000026401000000009004565b62000155565b63ffffffff7c010000000000000000000000000000000000000000000000000000000002817bffffffffffffffffffffffffffffffffffffffffffffffffffffffff191614151515620000e957600080fd5b6001600080837bffffffffffffffffffffffffffffffffffffffffffffffffffffffff19167bffffffffffffffffffffffffffffffffffffffffffffffffffffffff1916815260200190815260200160002060006101000a81548160ff02191690831515021790555050565b61327580620001656000396000f300608060405260043610610196576000357c0100000000000000000000000000000000000000000000000000000000900463ffffffff16806301333f061461019b57806301ffc9a7146101f2578063029bae2e1461025657806306edaabb146102ad578063081812fc146103d8578063095ea7b314610445578063175f91bc14610492578063195e02ff146104cb57806319c2a5b5146104f657806319cb3e751461050d57806323b872dd146105ea5780633af32abf146106575780633ccfd60b1461069a57806342842e0e146106c9578063476fd474146107365780634b6b6507146107795780635ec01e4d146107b25780636352211e146107dd578063636bf7301461084a57806370a08231146108755780637e318087146108cc5780639aafc6c914610939578063a22cb46514610966578063a2d5dce7146109b5578063b4a99a4e14610b8e578063b88d4fde14610be5578063cfdb63ac14610c98578063d27ba72514610cf3578063d9c4870e14610cfd578063e985e9c514610d54578063eb4fc53c14610dcf578063ec9b6db914610e1c575b600080fd5b3480156101a757600080fd5b506101b0610e49565b604051808273ffffffffffffffffffffffffffffffffffffffff1673ffffffffffffffffffffffffffffffffffffffff16815260200191505060405180910390f35b3480156101fe57600080fd5b5061023c60048036038101908080357bffffffffffffffffffffffffffffffffffffffffffffffffffffffff19169060200190929190505050610e6f565b604051808215151515815260200191505060405180910390f35b34801561026257600080fd5b506102ab60048036038101908080359060200190929190803573ffffffffffffffffffffffffffffffffffffffff16906020019092919080359060200190929190505050610ed6565b005b3480156102b957600080fd5b506103d6600480360381019080803573ffffffffffffffffffffffffffffffffffffffff169060200190929190803590602001908201803590602001908080601f0160208091040260200160405190810160405280939291908181526020018383808284378201915050505050509192919290803590602001908201803590602001908080601f016020809104026020016040519081016040528093929190818152602001838380828437820191505050505050919291929080359060200190929190803590602001908201803590602001908080601f0160208091040260200160405190810160405280939291908181526020018383808284378201915050505050509192919290803515159060200190929190505050610fa3565b005b3480156103e457600080fd5b5061040360048036038101908080359060200190929190505050611245565b604051808273ffffffffffffffffffffffffffffffffffffffff1673ffffffffffffffffffffffffffffffffffffffff16815260200191505060405180910390f35b34801561045157600080fd5b50610490600480360381019080803573ffffffffffffffffffffffffffffffffffffffff16906020019092919080359060200190929190505050611296565b005b34801561049e57600080fd5b506104c9600480360381019080803515159060200190929190803590602001909291905050506113db565b005b3480156104d757600080fd5b506104e061140d565b6040518082815260200191505060405180910390f35b34801561050257600080fd5b5061050b611413565b005b34801561051957600080fd5b506105e8600480360381019080803573ffffffffffffffffffffffffffffffffffffffff169060200190929190803573ffffffffffffffffffffffffffffffffffffffff1690602001909291908035906020019092919080359060200190929190803573ffffffffffffffffffffffffffffffffffffffff169060200190929190803590602001908201803590602001908080601f0160208091040260200160405190810160405280939291908181526020018383808284378201915050505050509192919290505050611557565b005b3480156105f657600080fd5b50610655600480360381019080803573ffffffffffffffffffffffffffffffffffffffff169060200190929190803573ffffffffffffffffffffffffffffffffffffffff16906020019092919080359060200190929190505050611aae565b005b34801561066357600080fd5b50610698600480360381019080803573ffffffffffffffffffffffffffffffffffffffff169060200190929190505050611ad3565b005b3480156106a657600080fd5b506106af611b97565b604051808215151515815260200191505060405180910390f35b3480156106d557600080fd5b50610734600480360381019080803573ffffffffffffffffffffffffffffffffffffffff169060200190929190803573ffffffffffffffffffffffffffffffffffffffff16906020019092919080359060200190929190505050611cbc565b005b34801561074257600080fd5b50610777600480360381019080803573ffffffffffffffffffffffffffffffffffffffff169060200190929190505050611cdd565b005b34801561078557600080fd5b506107b060048036038101908080351515906020019092919080359060200190929190505050612035565b005b3480156107be57600080fd5b506107c7612067565b6040518082815260200191505060405180910390f35b3480156107e957600080fd5b5061080860048036038101908080359060200190929190505050612164565b604051808273ffffffffffffffffffffffffffffffffffffffff1673ffffffffffffffffffffffffffffffffffffffff16815260200191505060405180910390f35b34801561085657600080fd5b5061085f6121e2565b6040518082815260200191505060405180910390f35b34801561088157600080fd5b506108b6600480360381019080803573ffffffffffffffffffffffffffffffffffffffff1690602001909291905050506121e8565b6040518082815260200191505060405180910390f35b3480156108d857600080fd5b506108f760048036038101908080359060200190929190505050612273565b604051808273ffffffffffffffffffffffffffffffffffffffff1673ffffffffffffffffffffffffffffffffffffffff16815260200191505060405180910390f35b34801561094557600080fd5b50610964600480360381019080803590602001909291905050506122b1565b005b34801561097257600080fd5b506109b3600480360381019080803573ffffffffffffffffffffffffffffffffffffffff169060200190929190803515159060200190929190505050612316565b005b3480156109c157600080fd5b506109e060048036038101908080359060200190929190505050612452565b604051808973ffffffffffffffffffffffffffffffffffffffff1673ffffffffffffffffffffffffffffffffffffffff16815260200180602001806020018881526020018060200187151515158152602001861515151581526020018515151515815260200184810384528b818151815260200191508051906020019080838360005b83811015610a7e578082015181840152602081019050610a63565b50505050905090810190601f168015610aab5780820380516001836020036101000a031916815260200191505b5084810383528a818151815260200191508051906020019080838360005b83811015610ae4578082015181840152602081019050610ac9565b50505050905090810190601f168015610b115780820380516001836020036101000a031916815260200191505b50848103825288818151815260200191508051906020019080838360005b83811015610b4a578082015181840152602081019050610b2f565b50505050905090810190601f168015610b775780820380516001836020036101000a031916815260200191505b509b50505050505050505050505060405180910390f35b348015610b9a57600080fd5b50610ba36126a9565b604051808273ffffffffffffffffffffffffffffffffffffffff1673ffffffffffffffffffffffffffffffffffffffff16815260200191505060405180910390f35b348015610bf157600080fd5b50610c96600480360381019080803573ffffffffffffffffffffffffffffffffffffffff169060200190929190803573ffffffffffffffffffffffffffffffffffffffff16906020019092919080359060200190929190803590602001908201803590602001908080601f01602080910402602001604051908101604052809392919081815260200183838082843782019150505050505091929192905050506126d3565b005b348015610ca457600080fd5b50610cd9600480360381019080803573ffffffffffffffffffffffffffffffffffffffff1690602001909291905050506126fb565b604051808215151515815260200191505060405180910390f35b610cfb61271b565b005b348015610d0957600080fd5b50610d126128a5565b604051808273ffffffffffffffffffffffffffffffffffffffff1673ffffffffffffffffffffffffffffffffffffffff16815260200191505060405180910390f35b348015610d6057600080fd5b50610db5600480360381019080803573ffffffffffffffffffffffffffffffffffffffff169060200190929190803573ffffffffffffffffffffffffffffffffffffffff1690602001909291905050506128cb565b604051808215151515815260200191505060405180910390f35b348015610ddb57600080fd5b50610e1a600480360381019080803573ffffffffffffffffffffffffffffffffffffffff1690602001909291908035906020019092919050505061295f565b005b348015610e2857600080fd5b50610e4760048036038101908080359060200190929190505050612a99565b005b600d60009054906101000a900473ffffffffffffffffffffffffffffffffffffffff1681565b6000806000837bffffffffffffffffffffffffffffffffffffffffffffffffffffffff19167bffffffffffffffffffffffffffffffffffffffffffffffffffffffff1916815260200190815260200160002060009054906101000a900460ff169050919050565b6008600082815260200190815260200160002060000160009054906101000a900473ffffffffffffffffffffffffffffffffffffffff1673ffffffffffffffffffffffffffffffffffffffff16610f2c82612164565b73ffffffffffffffffffffffffffffffffffffffff16141515610f4e57600080fd5b6202a300925081600b60006101000a81548173ffffffffffffffffffffffffffffffffffffffff021916908373ffffffffffffffffffffffffffffffffffffffff160217905550824201600c81905550505050565b60011515600560003373ffffffffffffffffffffffffffffffffffffffff1673ffffffffffffffffffffffffffffffffffffffff16815260200190815260200160002060009054906101000a900460ff16151514151561106b576040517f08c379a000000000000000000000000000000000000000000000000000000000815260040180806020018281038252601b8152602001807f6272656564657220697320696e207468652077686974656c697374000000000081525060200191505060405180910390fd5b8560086000600954815260200190815260200160002060000160006101000a81548173ffffffffffffffffffffffffffffffffffffffff021916908373ffffffffffffffffffffffffffffffffffffffff1602179055508460086000600954815260200190815260200160002060010190805190602001906110ee9291906131a4565b5083600860006009548152602001908152602001600020600201908051906020019061111b9291906131a4565b5082600860006009548152602001908152602001600020600301819055508160086000600954815260200190815260200160002060040190805190602001906111659291906131a4565b508060086000600954815260200190815260200160002060050160006101000a81548160ff021916908315150217905550600060086000600954815260200190815260200160002060050160016101000a81548160ff021916908315150217905550600060086000600954815260200190815260200160002060050160026101000a81548160ff0219169083151502179055506001600954016009819055507fa29e378c510e1e68852c45104212767f91b9eed39b034a555d242ad3db43289f6009546040518082815260200191505060405180910390a1505050505050565b600061125082612b43565b151561125b57600080fd5b6002600083815260200190815260200160002060009054906101000a900473ffffffffffffffffffffffffffffffffffffffff169050919050565b60006112a182612164565b90508073ffffffffffffffffffffffffffffffffffffffff168373ffffffffffffffffffffffffffffffffffffffff16141515156112de57600080fd5b8073ffffffffffffffffffffffffffffffffffffffff163373ffffffffffffffffffffffffffffffffffffffff16148061131e575061131d81336128cb565b5b151561132957600080fd5b826002600084815260200190815260200160002060006101000a81548173ffffffffffffffffffffffffffffffffffffffff021916908373ffffffffffffffffffffffffffffffffffffffff160217905550818373ffffffffffffffffffffffffffffffffffffffff168273ffffffffffffffffffffffffffffffffffffffff167f8c5be1e5ebec7d5bd14f71427d1e84f3dd0314c0f7b2291e5b200ac8c7c3b92560405160405180910390a4505050565b816008600083815260200190815260200160002060050160026101000a81548160ff0219169083151502179055505050565b60095481565b600c54421015151561142457600080fd5b601060009054906101000a900460ff1615151561144057600080fd5b6001601060006101000a81548160ff0219169083151502179055507fc9b64caa2aa57493e3a2b3087a613ad4168386aa000be494a8a41cd06bd3844a600d60009054906101000a900473ffffffffffffffffffffffffffffffffffffffff16600e54604051808373ffffffffffffffffffffffffffffffffffffffff1673ffffffffffffffffffffffffffffffffffffffff1681526020018281526020019250505060405180910390a1600b60009054906101000a900473ffffffffffffffffffffffffffffffffffffffff1673ffffffffffffffffffffffffffffffffffffffff166108fc600e549081150290604051600060405180830381858888f19350505050158015611554573d6000803e3d6000fd5b50565b600060011515600560008973ffffffffffffffffffffffffffffffffffffffff1673ffffffffffffffffffffffffffffffffffffffff16815260200190815260200160002060009054906101000a900460ff1615151415156115b857600080fd5b60011515600560008873ffffffffffffffffffffffffffffffffffffffff1673ffffffffffffffffffffffffffffffffffffffff16815260200190815260200160002060009054906101000a900460ff16151514151561161757600080fd5b600860008581526020019081526020016000206003015460086000878152602001908152602001600020600301541415151561165257600080fd5b8673ffffffffffffffffffffffffffffffffffffffff166008600087815260200190815260200160002060000160009054906101000a900473ffffffffffffffffffffffffffffffffffffffff1673ffffffffffffffffffffffffffffffffffffffff1614156116c7576116c6878661295f565b5b8573ffffffffffffffffffffffffffffffffffffffff166008600086815260200190815260200160002060000160009054906101000a900473ffffffffffffffffffffffffffffffffffffffff1673ffffffffffffffffffffffffffffffffffffffff16141561173c5761173b868561295f565b5b600115156008600086815260200190815260200160002060050160019054906101000a900460ff16151514801561179a5750600115156008600087815260200190815260200160002060050160019054906101000a900460ff161515145b15611aa5576117a7612067565b9050600160086000878152602001908152602001600020600301541415611938576119338383600860008981526020019081526020016000206002018054600181600116156101000203166002900480601f0160208091040260200160405190810160405280929190818152602001828054600181600116156101000203166002900480156118775780601f1061184c57610100808354040283529160200191611877565b820191906000526020600020905b81548152906001019060200180831161185a57829003601f168201915b505050505084600860008a81526020019081526020016000206004018054600181600116156101000203166002900480601f0160208091040260200160405190810160405280929190818152602001828054600181600116156101000203166002900480156119275780601f106118fc57610100808354040283529160200191611927565b820191906000526020600020905b81548152906001019060200180831161190a57829003601f168201915b50505050506001610fa3565b611aa4565b611aa38383600860008881526020019081526020016000206002018054600181600116156101000203166002900480601f0160208091040260200160405190810160405280929190818152602001828054600181600116156101000203166002900480156119e75780601f106119bc576101008083540402835291602001916119e7565b820191906000526020600020905b8154815290600101906020018083116119ca57829003601f168201915b505050505084600860008b81526020019081526020016000206004018054600181600116156101000203166002900480601f016020809104026020016040519081016040528092919081815260200182805460018160011615610100020316600290048015611a975780601f10611a6c57610100808354040283529160200191611a97565b820191906000526020600020905b815481529060010190602001808311611a7a57829003601f168201915b50505050506001610fa3565b5b5b50505050505050565b611ab83382612bb5565b1515611ac357600080fd5b611ace838383612c4a565b505050565b600560008273ffffffffffffffffffffffffffffffffffffffff1673ffffffffffffffffffffffffffffffffffffffff16815260200190815260200160002060009054906101000a900460ff161515611b94576040517f08c379a00000000000000000000000000000000000000000000000000000000081526004018080602001828103825260108152602001807f6e6f7420696e2077686974656c6973740000000000000000000000000000000081525060200191505060405180910390fd5b50565b600080600f60003373ffffffffffffffffffffffffffffffffffffffff1673ffffffffffffffffffffffffffffffffffffffff1681526020019081526020016000205490506000811115611cb3576000600f60003373ffffffffffffffffffffffffffffffffffffffff1673ffffffffffffffffffffffffffffffffffffffff168152602001908152602001600020819055503373ffffffffffffffffffffffffffffffffffffffff166108fc829081150290604051600060405180830381858888f193505050501515611cb25780600f60003373ffffffffffffffffffffffffffffffffffffffff1673ffffffffffffffffffffffffffffffffffffffff1681526020019081526020016000208190555060009150611cb8565b5b600191505b5090565b611cd883838360206040519081016040528060008152506126d3565b505050565b600760009054906101000a900473ffffffffffffffffffffffffffffffffffffffff1673ffffffffffffffffffffffffffffffffffffffff163373ffffffffffffffffffffffffffffffffffffffff16141515611da2576040517f08c379a00000000000000000000000000000000000000000000000000000000081526004018080602001828103825260098152602001807f4f776e657220307830000000000000000000000000000000000000000000000081525060200191505060405180910390fd5b80600073ffffffffffffffffffffffffffffffffffffffff168173ffffffffffffffffffffffffffffffffffffffff1614151515611e48576040517f08c379a000000000000000000000000000000000000000000000000000000000815260040180806020018281038252600b8152602001807f616464726573732030783000000000000000000000000000000000000000000081525060200191505060405180910390fd5b600560008373ffffffffffffffffffffffffffffffffffffffff1673ffffffffffffffffffffffffffffffffffffffff16815260200190815260200160002060009054906101000a900460ff16151515611f30576040517f08c379a00000000000000000000000000000000000000000000000000000000081526004018080602001828103825260288152602001807f746865206272656564657220697320616c64726561647920696e20746865207781526020017f686974656c69737400000000000000000000000000000000000000000000000081525060400191505060405180910390fd5b6001600560008473ffffffffffffffffffffffffffffffffffffffff1673ffffffffffffffffffffffffffffffffffffffff16815260200190815260200160002060006101000a81548160ff02191690831515021790555060068290806001815401808255809150509060018203906000526020600020016000909192909190916101000a81548173ffffffffffffffffffffffffffffffffffffffff021916908373ffffffffffffffffffffffffffffffffffffffff160217905550508173ffffffffffffffffffffffffffffffffffffffff167fd4e617d9bc8b29a3668b5151718b0fb033a22cc5be0c5891e866312fdce7295460405160405180910390a25050565b816008600083815260200190815260200160002060050160026101000a81548160ff0219169083151502179055505050565b60008060024233600a54604051602001808481526020018373ffffffffffffffffffffffffffffffffffffffff1673ffffffffffffffffffffffffffffffffffffffff166c0100000000000000000000000002815260140182815260200193505050506040516020818303038152906040526040518082805190602001908083835b60208310151561210e57805182526020820191506020810190506020830392506120e9565b6001836020036101000a03801982511681845116808217855250505050505090500191505060405180910390206001900481151561214857fe5b069050600a600081548092919060010191905055508091505090565b6000806001600084815260200190815260200160002060009054906101000a900473ffffffffffffffffffffffffffffffffffffffff169050600073ffffffffffffffffffffffffffffffffffffffff168173ffffffffffffffffffffffffffffffffffffffff16141515156121d957600080fd5b80915050919050565b600e5481565b60008073ffffffffffffffffffffffffffffffffffffffff168273ffffffffffffffffffffffffffffffffffffffff161415151561222557600080fd5b61226c600360008473ffffffffffffffffffffffffffffffffffffffff1673ffffffffffffffffffffffffffffffffffffffff168152602001908152602001600020612e47565b9050919050565b60068181548110151561228257fe5b906000526020600020016000915054906101000a900473ffffffffffffffffffffffffffffffffffffffff1681565b600c5442101515156122c257600080fd5b601060009054906101000a900460ff161515156122de57600080fd5b6123136122ea82612164565b600b60009054906101000a900473ffffffffffffffffffffffffffffffffffffffff1683612c4a565b50565b3373ffffffffffffffffffffffffffffffffffffffff168273ffffffffffffffffffffffffffffffffffffffff161415151561235157600080fd5b80600460003373ffffffffffffffffffffffffffffffffffffffff1673ffffffffffffffffffffffffffffffffffffffff16815260200190815260200160002060008473ffffffffffffffffffffffffffffffffffffffff1673ffffffffffffffffffffffffffffffffffffffff16815260200190815260200160002060006101000a81548160ff0219169083151502179055508173ffffffffffffffffffffffffffffffffffffffff163373ffffffffffffffffffffffffffffffffffffffff167f17307eab39ab6107e8899845ad3d59bd9653f200f220920489ca2b5937696c3183604051808215151515815260200191505060405180910390a35050565b60086020528060005260406000206000915090508060000160009054906101000a900473ffffffffffffffffffffffffffffffffffffffff1690806001018054600181600116156101000203166002900480601f0160208091040260200160405190810160405280929190818152602001828054600181600116156101000203166002900480156125245780601f106124f957610100808354040283529160200191612524565b820191906000526020600020905b81548152906001019060200180831161250757829003601f168201915b505050505090806002018054600181600116156101000203166002900480601f0160208091040260200160405190810160405280929190818152602001828054600181600116156101000203166002900480156125c25780601f10612597576101008083540402835291602001916125c2565b820191906000526020600020905b8154815290600101906020018083116125a557829003601f168201915b505050505090806003015490806004018054600181600116156101000203166002900480601f0160208091040260200160405190810160405280929190818152602001828054600181600116156101000203166002900480156126665780601f1061263b57610100808354040283529160200191612666565b820191906000526020600020905b81548152906001019060200180831161264957829003601f168201915b5050505050908060050160009054906101000a900460ff16908060050160019054906101000a900460ff16908060050160029054906101000a900460ff16905088565b6000600760009054906101000a900473ffffffffffffffffffffffffffffffffffffffff16905090565b6126de848484611aae565b6126ea84848484612e55565b15156126f557600080fd5b50505050565b60056020528060005260406000206000915054906101000a900460ff1681565b600c54421115151561272c57600080fd5b600e543411151561273c57600080fd5b6000600d60009054906101000a900473ffffffffffffffffffffffffffffffffffffffff1673ffffffffffffffffffffffffffffffffffffffff161415156127f057600e54600f6000600d60009054906101000a900473ffffffffffffffffffffffffffffffffffffffff1673ffffffffffffffffffffffffffffffffffffffff1673ffffffffffffffffffffffffffffffffffffffff168152602001908152602001600020600082825401925050819055505b33600d60006101000a81548173ffffffffffffffffffffffffffffffffffffffff021916908373ffffffffffffffffffffffffffffffffffffffff16021790555034600e819055507f7635e37094566fa4ea4b08dd77117e7ace1e3e5a6ee614bcd37eb6ad8eccc1d93334604051808373ffffffffffffffffffffffffffffffffffffffff1673ffffffffffffffffffffffffffffffffffffffff1681526020018281526020019250505060405180910390a1565b600b60009054906101000a900473ffffffffffffffffffffffffffffffffffffffff1681565b6000600460008473ffffffffffffffffffffffffffffffffffffffff1673ffffffffffffffffffffffffffffffffffffffff16815260200190815260200160002060008373ffffffffffffffffffffffffffffffffffffffff1673ffffffffffffffffffffffffffffffffffffffff16815260200190815260200160002060009054906101000a900460ff16905092915050565b600560008373ffffffffffffffffffffffffffffffffffffffff1673ffffffffffffffffffffffffffffffffffffffff16815260200190815260200160002060009054906101000a900460ff161515156129b857600080fd5b6008600082815260200190815260200160002060000160009054906101000a900473ffffffffffffffffffffffffffffffffffffffff1673ffffffffffffffffffffffffffffffffffffffff16612a0e82612164565b73ffffffffffffffffffffffffffffffffffffffff16141515612a3057600080fd5b600115156008600083815260200190815260200160002060050160009054906101000a900460ff161515141515612a6657600080fd5b60016008600083815260200190815260200160002060050160016101000a81548160ff0219169083151502179055505050565b6008600082815260200190815260200160002060000160009054906101000a900473ffffffffffffffffffffffffffffffffffffffff1673ffffffffffffffffffffffffffffffffffffffff16612aef82612164565b73ffffffffffffffffffffffffffffffffffffffff16141515612b1157600080fd5b60006008600083815260200190815260200160002060050160006101000a81548160ff02191690831515021790555050565b6000806001600084815260200190815260200160002060009054906101000a900473ffffffffffffffffffffffffffffffffffffffff169050600073ffffffffffffffffffffffffffffffffffffffff168173ffffffffffffffffffffffffffffffffffffffff161415915050919050565b600080612bc183612164565b90508073ffffffffffffffffffffffffffffffffffffffff168473ffffffffffffffffffffffffffffffffffffffff161480612c3057508373ffffffffffffffffffffffffffffffffffffffff16612c1884611245565b73ffffffffffffffffffffffffffffffffffffffff16145b80612c415750612c4081856128cb565b5b91505092915050565b8273ffffffffffffffffffffffffffffffffffffffff16612c6a82612164565b73ffffffffffffffffffffffffffffffffffffffff16141515612c8c57600080fd5b600073ffffffffffffffffffffffffffffffffffffffff168273ffffffffffffffffffffffffffffffffffffffff1614151515612cc857600080fd5b600115156008600083815260200190815260200160002060050160009054906101000a900460ff161515141515612cfe57600080fd5b612d0781613077565b612d4e600360008573ffffffffffffffffffffffffffffffffffffffff1673ffffffffffffffffffffffffffffffffffffffff168152602001908152602001600020613137565b612d95600360008473ffffffffffffffffffffffffffffffffffffffff1673ffffffffffffffffffffffffffffffffffffffff16815260200190815260200160002061315a565b816001600083815260200190815260200160002060006101000a81548173ffffffffffffffffffffffffffffffffffffffff021916908373ffffffffffffffffffffffffffffffffffffffff160217905550808273ffffffffffffffffffffffffffffffffffffffff168473ffffffffffffffffffffffffffffffffffffffff167fddf252ad1be2c89b69c2b068fc378daa952ba7f163c4a11628f55a4df523b3ef60405160405180910390a4505050565b600081600001549050919050565b600080612e778573ffffffffffffffffffffffffffffffffffffffff16613170565b1515612e86576001915061306e565b8473ffffffffffffffffffffffffffffffffffffffff1663150b7a02338887876040518563ffffffff167c0100000000000000000000000000000000000000000000000000000000028152600401808573ffffffffffffffffffffffffffffffffffffffff1673ffffffffffffffffffffffffffffffffffffffff1681526020018473ffffffffffffffffffffffffffffffffffffffff1673ffffffffffffffffffffffffffffffffffffffff16815260200183815260200180602001828103825283818151815260200191508051906020019080838360005b83811015612f7b578082015181840152602081019050612f60565b50505050905090810190601f168015612fa85780820380516001836020036101000a031916815260200191505b5095505050505050602060405180830381600087803b158015612fca57600080fd5b505af1158015612fde573d6000803e3d6000fd5b505050506040513d6020811015612ff457600080fd5b8101908080519060200190929190505050905063150b7a027c0100000000000000000000000000000000000000000000000000000000027bffffffffffffffffffffffffffffffffffffffffffffffffffffffff1916817bffffffffffffffffffffffffffffffffffffffffffffffffffffffff19161491505b50949350505050565b600073ffffffffffffffffffffffffffffffffffffffff166002600083815260200190815260200160002060009054906101000a900473ffffffffffffffffffffffffffffffffffffffff1673ffffffffffffffffffffffffffffffffffffffff161415156131345760006002600083815260200190815260200160002060006101000a81548173ffffffffffffffffffffffffffffffffffffffff021916908373ffffffffffffffffffffffffffffffffffffffff1602179055505b50565b61314f6001826000015461318390919063ffffffff16565b816000018190555050565b6001816000016000828254019250508190555050565b600080823b905060008111915050919050565b60008083831115151561319557600080fd5b82840390508091505092915050565b828054600181600116156101000203166002900490600052602060002090601f016020900481019282601f106131e557805160ff1916838001178555613213565b82800160010185558215613213579182015b828111156132125782518255916020019190600101906131f7565b5b5090506132209190613224565b5090565b61324691905b8082111561324257600081600090555060010161322a565b5090565b905600a165627a7a72305820526d00eb6643403a295cb5cde23c0104780a1a936377cbe75eb06617336b51a70029",
  "source": "pragma solidity ^0.4.25;\n\n//random function: https://ethereum.stackexchange.com/questions/60684/i-want-get-random-number-between-100-999-as-follows\n//aunction: https://www.bitdegree.org/learn/solidity-example-simple-open-auction\n\nimport \"./openzeppelin_data/IERC721.sol\";\nimport \"./openzeppelin_data/IERC721Receiver.sol\";\nimport \"./openzeppelin_data/SafeMath.sol\";\nimport \"./openzeppelin_data/Address.sol\";\nimport \"./openzeppelin_data/Counters.sol\";\nimport \"./openzeppelin_data/ERC165.sol\";\n\n/**\n * @title ERC721 Non-Fungible Token Standard basic implementation\n * @dev see https://eips.ethereum.org/EIPS/eip-721\n */\ncontract ERC721 is ERC165, IERC721 {\n    using SafeMath for uint256;\n    using Address for address;\n    using Counters for Counters.Counter;\n\t\n    // Equals to `bytes4(keccak256(\"onERC721Received(address,address,uint256,bytes)\"))`\n    // which can be also obtained as `IERC721Receiver(0).onERC721Received.selector`\n    bytes4 private constant _ERC721_RECEIVED = 0x150b7a02;\n\n    // Mapping from token ID to owner\n    mapping (uint256 => address) private _tokenOwner;\n\n    // Mapping from token ID to approved address\n    mapping (uint256 => address) private _tokenApprovals;\n\n    // Mapping from owner to number of owned token\n    mapping (address => Counters.Counter) private _ownedTokensCount;\n\n    // Mapping from owner to operator approvals\n    mapping (address => mapping (address => bool)) private _operatorApprovals;\n\t\n\t\n\t\n    bytes4 private constant _INTERFACE_ID_ERC721 = 0x80ac58cd;\n    /*\n     * 0x80ac58cd ===\n     *     bytes4(keccak256('balanceOf(address)')) ^\n     *     bytes4(keccak256('ownerOf(uint256)')) ^\n     *     bytes4(keccak256('approve(address,uint256)')) ^\n     *     bytes4(keccak256('getApproved(uint256)')) ^\n     *     bytes4(keccak256('setApprovalForAll(address,bool)')) ^\n     *     bytes4(keccak256('isApprovedForAll(address,address)')) ^\n     *     bytes4(keccak256('transferFrom(address,address,uint256)')) ^\n     *     bytes4(keccak256('safeTransferFrom(address,address,uint256)')) ^\n     *     bytes4(keccak256('safeTransferFrom(address,address,uint256,bytes)'))\n     */\n\n\tmapping (address => bool) public _whitelist;\n\taddress[] public breeders;\n\taddress private _owner;\n\t\n\tevent RegisterAdded(address indexed account);\n\t\n\tfunction Owner() public view returns (address) {\n        return _owner;\n    }\n\t\n\t modifier onlyBreeder() {\n        require(msg.sender == _owner, \"Owner 0x0\");\n        _;\n    }\n\t\n\tmodifier isNotZeroAccount(address _address) {\n        require(_address != address(0), \"address 0x0\");\n        _;\n    }\n\t\n\t function registerBreeder(address _address) public onlyBreeder() isNotZeroAccount(_address) \n\t{\n        require(!_whitelist[_address], \"the breeder is aldready in the whitelist\");\n        _whitelist[_address] = true;\n        breeders.push(_address);\n        emit RegisterAdded(_address);\n    }\n\t\n\tfunction isWhitelisted(address _address) \n\t{\n\t\trequire(_whitelist[_address], \"not in whitelist\");\n\t}\n\t\n\tstruct horse\n\t{\n\t  address owner;\n\t  string name;\n\t  string color;\n\t  uint sex;\n\t  string favoriteDish ;\n\t  bool alive;\n\t  bool readyToMate;\n\t  bool readyToFight;\n\t}\n\t\n\tmapping(uint => horse) public horseRegister;\n\t\n\tuint public nextHorseId;\n\t\n\tevent createdAnHorse(uint nextHorseId);\n\t\n\tfunction declareAnimal(address haddress,string hname, string hcolor, uint hsex, string hfavoriteDish, bool halive) public\n\t{\n\t\trequire(_whitelist[msg.sender]==true, \"breeder is in the whitelist\");\n\n\t\thorseRegister[nextHorseId].owner = haddress;\n\t\thorseRegister[nextHorseId].name = hname;\n\t\thorseRegister[nextHorseId].color= hcolor;\n\t\thorseRegister[nextHorseId].sex= hsex;\n\t\thorseRegister[nextHorseId].favoriteDish= hfavoriteDish;\n\t\thorseRegister[nextHorseId].alive= halive;\n\t\thorseRegister[nextHorseId].readyToMate=false;\n\t\thorseRegister[nextHorseId].readyToFight=false;\n\t\tnextHorseId = nextHorseId + 1;\n\t\temit createdAnHorse(nextHorseId);\n\t}\n\t\n\tfunction deadAnimal(uint _horseID) public\n\t{\n\t\trequire(ownerOf(_horseID) == horseRegister[_horseID].owner);\n\t\thorseRegister[_horseID].alive = false;\t\t\n\t}\n\t\n\tfunction ready(address _breeder, uint horseID) public \n\t{\n\t\t require(!_whitelist[_breeder]) ;\n\t\t require(ownerOf(horseID) == horseRegister[horseID].owner);\n\t\t require(horseRegister[horseID].alive==true);\n\t\t \n\t\t horseRegister[horseID].readyToMate=true;\n\t}\n\t\n    uint nonce = 0;\n    function random() public returns (uint) \n\t{\n\t\tuint randomnumber = uint(keccak256(abi.encodePacked(now, msg.sender, nonce))) % 2;\n\t\tnonce++;\n\t\treturn randomnumber;\n\t}\n\n\tfunction breedAnimal(address A, address B, uint horseIdA, uint horseIdB, address _futureOwner, string hname) public\n\t{ \n\t\trequire(_whitelist[A]==true);\n\t\trequire(_whitelist[B]==true);\n\t\trequire(horseRegister[horseIdA].sex!=horseRegister[horseIdB].sex);\n\t\t\n\t\tif(horseRegister[horseIdA].owner == A){\n\t\tready(A,horseIdA);\n\t\t}\n\t\t\n\t\tif(horseRegister[horseIdB].owner == B){\n\t\tready(B,horseIdB);\n\t\t}\n\t\t\n\t\tif(horseRegister[horseIdB].readyToMate==true && horseRegister[horseIdA].readyToMate==true)\n\t\t{\n\t\t\tuint randomsex= random();\n\t\t\tif(horseRegister[horseIdA].sex==1)\n\t\t\t{\n\t\t\t\tdeclareAnimal(_futureOwner, hname, horseRegister[horseIdA].color, randomsex,horseRegister[horseIdB].favoriteDish, true);\n\t\t\t}\n\t\t\telse \n\t\t\t{\n\t\t\t\tdeclareAnimal(_futureOwner, hname, horseRegister[horseIdB].color, randomsex,horseRegister[horseIdA].favoriteDish, true);\n\t\t\t}\n\t\t}\n\t}\n\t\n\n\t // Auction parameters. Times are either in the format of unix timestamps (seconds that have passed since 1970-01-01) or a time period in seconds.\n\t\n    address public beneficiaryAddress;\n    uint public auctionClose;\n\n    // Current state of the auction.\n    address public topBidder;\n    uint public topBid;\n\n    // Allowed withdrawals of previous bids\n    mapping(address => uint) returnsPending;\n\n    // Will be set true once the auction is complete, preventing any further change\n    bool auctionComplete;\n\n    // Events to fire when change happens.\n    event topBidIncreased(address bidder, uint bidAmount);\n    event auctionResult(address winner, uint bidAmount);\n\n    /// Create an auction with `_biddingTime` seconds for bidding on behalf of the beneficiary address `_beneficiary`.\n\t\n    function createAuction(uint _biddingTime, address _beneficiary, uint horseID) \n\t{\n\t\trequire(ownerOf(horseID) == horseRegister[horseID].owner);\n\t\t_biddingTime= 2*24*3600;\n        beneficiaryAddress = _beneficiary;\n        auctionClose = now + _biddingTime;\n    }\n\n    /// You may bid on the auction with the value sent along with this transaction.\n    /// The value may only be refunded if the auction was not won.\n    function bidOnAuction() payable {\n        // No argument is necessary, all information is already added to the transaction. The keyword payable is required so the function receives Ether.\n        // Revert the call in case the bidding period is over.\n        require(now <= auctionClose);\n        // If the bid is not greater, the money is sent back.\n        require(msg.value > topBid);\n\n        if (topBidder != 0) {\n            // Sending the money back by simply using topBidder.send(topBid) is a risk to the security\n            // since it could execute a contract that is not trusted.\n            // It is always preferable to let the recipients withdraw their money themselves.\n            returnsPending[topBidder] += topBid;\n        }\n        topBidder = msg.sender;\n        topBid = msg.value;\n        topBidIncreased(msg.sender, msg.value);\n    }\n\n\tfunction claimAuction(uint horseID)\n\t{\n\t\trequire(now >= auctionClose); // auction did not yet end\n        require(!auctionComplete); // this function has already been called\n\t\t_transferFrom(ownerOf(horseID),beneficiaryAddress, horseID);\n\t}\n\t\n    /// Withdraw a bid that was overbid.\n    function withdraw() returns (bool) {\n        uint bidAmount = returnsPending[msg.sender];\n        if (bidAmount > 0) {\n            // It is important to set this to zero because the recipient can call this function again as part of the receiving call before `send` returns.\n            returnsPending[msg.sender] = 0;\n\n            if (!msg.sender.send(bidAmount)) {\n                //Calling throw not necessary here, simply reset the bidAmount owing\n                returnsPending[msg.sender] = bidAmount;\n                return false;\n            }\n        }\n        return true;\n    }\n\t\n    /// Auction ends and highest bid is sent to the beneficiary.\n    function auctionClose() {\n        // 1. Conditions\n        require(now >= auctionClose); // auction did not yet end\n        require(!auctionComplete); // this function has already been called\n\n        // 2. Effects\n        auctionComplete = true;\n        auctionResult(topBidder, topBid);\n\n        // 3. Interaction\n        beneficiaryAddress.transfer(topBid);\n\t}\n\t\n\t\n    constructor () public {\n        // register the supported interfaces to conform to ERC721 via ERC165\n        _registerInterface(_INTERFACE_ID_ERC721);\n    }\n\t\n\tfunction changeReadyToFight(bool ready, uint horseID)\n\t{\n\t\thorseRegister[horseID].readyToFight=ready;\n\t}\n\t\n\tfunction changeAlive(bool alive, uint horseID)\n\t{\n\t\thorseRegister[horseID].readyToFight=alive;\n\t}\n    /**\n     * @dev Gets the balance of the specified address\n     * @param owner address to query the balance of\n     * @return uint256 representing the amount owned by the passed address\n     */\n    function balanceOf(address owner) public view returns (uint256) {\n        require(owner != address(0));\n        return _ownedTokensCount[owner].current();\n    }\n\n    /**\n     * @dev Gets the owner of the specified token ID\n     * @param tokenId uint256 ID of the token to query the owner of\n     * @return address currently marked as the owner of the given token ID\n     */\n    function ownerOf(uint256 tokenId) public view returns (address) {\n        address owner = _tokenOwner[tokenId];\n        require(owner != address(0));\n        return owner;\n    }\n\n    /**\n     * @dev Approves another address to transfer the given token ID\n     * The zero address indicates there is no approved address.\n     * There can only be one approved address per token at a given time.\n     * Can only be called by the token owner or an approved operator.\n     * @param to address to be approved for the given token ID\n     * @param tokenId uint256 ID of the token to be approved\n     */\n    function approve(address to, uint256 tokenId) public {\n        address owner = ownerOf(tokenId);\n        require(to != owner);\n        require(msg.sender == owner || isApprovedForAll(owner, msg.sender));\n\n        _tokenApprovals[tokenId] = to;\n        emit Approval(owner, to, tokenId);\n    }\n\n    /**\n     * @dev Gets the approved address for a token ID, or zero if no address set\n     * Reverts if the token ID does not exist.\n     * @param tokenId uint256 ID of the token to query the approval of\n     * @return address currently approved for the given token ID\n     */\n    function getApproved(uint256 tokenId) public view returns (address) {\n        require(_exists(tokenId));\n        return _tokenApprovals[tokenId];\n    }\n\n    /**\n     * @dev Sets or unsets the approval of a given operator\n     * An operator is allowed to transfer all tokens of the sender on their behalf\n     * @param to operator address to set the approval\n     * @param approved representing the status of the approval to be set\n     */\n    function setApprovalForAll(address to, bool approved) public {\n        require(to != msg.sender);\n        _operatorApprovals[msg.sender][to] = approved;\n        emit ApprovalForAll(msg.sender, to, approved);\n    }\n\n    /**\n     * @dev Tells whether an operator is approved by a given owner\n     * @param owner owner address which you want to query the approval of\n     * @param operator operator address which you want to query the approval of\n     * @return bool whether the given operator is approved by the given owner\n     */\n    function isApprovedForAll(address owner, address operator) public view returns (bool) {\n        return _operatorApprovals[owner][operator];\n    }\n\n    /**\n     * @dev Transfers the ownership of a given token ID to another address\n     * Usage of this method is discouraged, use `safeTransferFrom` whenever possible\n     * Requires the msg.sender to be the owner, approved, or operator\n     * @param from current owner of the token\n     * @param to address to receive the ownership of the given token ID\n     * @param tokenId uint256 ID of the token to be transferred\n     */\n    function transferFrom(address from, address to, uint256 tokenId) public {\n        require(_isApprovedOrOwner(msg.sender, tokenId));\n\n        _transferFrom(from, to, tokenId);\n    }\n\n    /**\n     * @dev Safely transfers the ownership of a given token ID to another address\n     * If the target address is a contract, it must implement `onERC721Received`,\n     * which is called upon a safe transfer, and return the magic value\n     * `bytes4(keccak256(\"onERC721Received(address,address,uint256,bytes)\"))`; otherwise,\n     * the transfer is reverted.\n     * Requires the msg.sender to be the owner, approved, or operator\n     * @param from current owner of the token\n     * @param to address to receive the ownership of the given token ID\n     * @param tokenId uint256 ID of the token to be transferred\n     */\n    function safeTransferFrom(address from, address to, uint256 tokenId) public {\n        safeTransferFrom(from, to, tokenId, \"\");\n    }\n\n    /**\n     * @dev Safely transfers the ownership of a given token ID to another address\n     * If the target address is a contract, it must implement `onERC721Received`,\n     * which is called upon a safe transfer, and return the magic value\n     * `bytes4(keccak256(\"onERC721Received(address,address,uint256,bytes)\"))`; otherwise,\n     * the transfer is reverted.\n     * Requires the msg.sender to be the owner, approved, or operator\n     * @param from current owner of the token\n     * @param to address to receive the ownership of the given token ID\n     * @param tokenId uint256 ID of the token to be transferred\n     * @param _data bytes data to send along with a safe transfer check\n     */\n    function safeTransferFrom(address from, address to, uint256 tokenId, bytes memory _data) public {\n        transferFrom(from, to, tokenId);\n        require(_checkOnERC721Received(from, to, tokenId, _data));\n    }\n\n    /**\n     * @dev Returns whether the specified token exists\n     * @param tokenId uint256 ID of the token to query the existence of\n     * @return bool whether the token exists\n     */\n    function _exists(uint256 tokenId) internal view returns (bool) {\n        address owner = _tokenOwner[tokenId];\n        return owner != address(0);\n    }\n\n    /**\n     * @dev Returns whether the given spender can transfer a given token ID\n     * @param spender address of the spender to query\n     * @param tokenId uint256 ID of the token to be transferred\n     * @return bool whether the msg.sender is approved for the given token ID,\n     * is an operator of the owner, or is the owner of the token\n     */\n    function _isApprovedOrOwner(address spender, uint256 tokenId) internal view returns (bool) {\n        address owner = ownerOf(tokenId);\n        return (spender == owner || getApproved(tokenId) == spender || isApprovedForAll(owner, spender));\n    }\n\n    /**\n     * @dev Internal function to mint a new token\n     * Reverts if the given token ID already exists\n     * @param to The address that will own the minted token\n     * @param tokenId uint256 ID of the token to be minted\n     */\n    function _mint(address to, uint256 tokenId) internal {\n        require(to != address(0));\n        require(!_exists(tokenId));\n\n        _tokenOwner[tokenId] = to;\n        _ownedTokensCount[to].increment();\n\n        emit Transfer(address(0), to, tokenId);\n    }\n\n    /**\n     * @dev Internal function to burn a specific token\n     * Reverts if the token does not exist\n     * Deprecated, use _burn(uint256) instead.\n     * @param owner owner of the token to burn\n     * @param tokenId uint256 ID of the token being burned\n     */\n    function _burn(address owner, uint256 tokenId) internal {\n        require(ownerOf(tokenId) == owner);\n\n        _clearApproval(tokenId);\n\n        _ownedTokensCount[owner].decrement();\n        _tokenOwner[tokenId] = address(0);\n\n        emit Transfer(owner, address(0), tokenId);\n    }\n\n    /**\n     * @dev Internal function to burn a specific token\n     * Reverts if the token does not exist\n     * @param tokenId uint256 ID of the token being burned\n     */\n    function _burn(uint256 tokenId) internal {\n        _burn(ownerOf(tokenId), tokenId);\n    }\n\n    /**\n     * @dev Internal function to transfer ownership of a given token ID to another address.\n     * As opposed to transferFrom, this imposes no restrictions on msg.sender.\n     * @param from current owner of the token\n     * @param to address to receive the ownership of the given token ID\n     * @param tokenId uint256 ID of the token to be transferred\n     */\n    function _transferFrom(address from, address to, uint256 tokenId) internal {\n        require(ownerOf(tokenId) == from);\n        require(to != address(0)); \n\t\trequire(horseRegister[tokenId].alive==true);\n        _clearApproval(tokenId);\t\n        _ownedTokensCount[from].decrement();\n        _ownedTokensCount[to].increment();\n        _tokenOwner[tokenId] = to;\n        emit Transfer(from, to, tokenId);\n    }\n\n    /**\n     * @dev Internal function to invoke `onERC721Received` on a target address\n     * The call is not executed if the target address is not a contract\n     * @param from address representing the previous owner of the given token ID\n     * @param to target address that will receive the tokens\n     * @param tokenId uint256 ID of the token to be transferred\n     * @param _data bytes optional data to send along with the call\n     * @return bool whether the call correctly returned the expected magic value\n     */\n    function _checkOnERC721Received(address from, address to, uint256 tokenId, bytes memory _data)\n        internal returns (bool)\n    {\n        if (!to.isContract()) {\n            return true;\n        }\n\n        bytes4 retval = IERC721Receiver(to).onERC721Received(msg.sender, from, tokenId, _data);\n        return (retval == _ERC721_RECEIVED);\n    }\n\n    /**\n     * @dev Private function to clear current approval of a given token ID\n     * @param tokenId uint256 ID of the token to be transferred\n     */\n    function _clearApproval(uint256 tokenId) private {\n        if (_tokenApprovals[tokenId] != address(0)) {\n            _tokenApprovals[tokenId] = address(0);\n        }\n    }\n}\n",
  "sourcePath": "C:\\Users\\jbgue\\Documents\\ESILV\\4A\\Blockchain\\TD6 copie\\contracts\\ERC721.sol",
  "compiler": {
    "name": "solc",
    "version": "0.4.25+commit.59dbf8f1.Emscripten.clang"
  },
  "schemaVersion": "2.0.2",
  "updatedAt": "2019-03-17T20:30:48.163Z"
}